{
  "contractName": "UniversityForum",
  "abi": [
    {
      "constant": true,
      "inputs": [
        {
          "name": "",
          "type": "address"
        }
      ],
      "name": "members",
      "outputs": [
        {
          "name": "",
          "type": "bool"
        }
      ],
      "payable": false,
      "stateMutability": "view",
      "type": "function"
    },
    {
      "constant": true,
      "inputs": [
        {
          "name": "",
          "type": "uint256"
        }
      ],
      "name": "messages",
      "outputs": [
        {
          "name": "index",
          "type": "uint256"
        },
        {
          "name": "author",
          "type": "address"
        },
        {
          "name": "timestamp",
          "type": "uint256"
        },
        {
          "name": "messageType",
          "type": "string"
        },
        {
          "name": "content",
          "type": "string"
        }
      ],
      "payable": false,
      "stateMutability": "view",
      "type": "function"
    },
    {
      "constant": true,
      "inputs": [],
      "name": "messageCount",
      "outputs": [
        {
          "name": "",
          "type": "uint256"
        }
      ],
      "payable": false,
      "stateMutability": "view",
      "type": "function"
    },
    {
      "constant": true,
      "inputs": [],
      "name": "commentCount",
      "outputs": [
        {
          "name": "",
          "type": "uint256"
        }
      ],
      "payable": false,
      "stateMutability": "view",
      "type": "function"
    },
    {
      "constant": true,
      "inputs": [],
      "name": "owner",
      "outputs": [
        {
          "name": "",
          "type": "address"
        }
      ],
      "payable": false,
      "stateMutability": "view",
      "type": "function"
    },
    {
      "constant": true,
      "inputs": [
        {
          "name": "",
          "type": "uint256"
        }
      ],
      "name": "comments",
      "outputs": [
        {
          "name": "referenceIdx",
          "type": "uint256"
        },
        {
          "name": "author",
          "type": "address"
        },
        {
          "name": "timestamp",
          "type": "uint256"
        },
        {
          "name": "content",
          "type": "string"
        }
      ],
      "payable": false,
      "stateMutability": "view",
      "type": "function"
    },
    {
      "inputs": [],
      "payable": false,
      "stateMutability": "nonpayable",
      "type": "constructor"
    },
    {
      "anonymous": false,
      "inputs": [
        {
          "indexed": false,
          "name": "membership",
          "type": "bool"
        }
      ],
      "name": "MembershipVerified",
      "type": "event"
    },
    {
      "anonymous": false,
      "inputs": [
        {
          "indexed": false,
          "name": "index",
          "type": "uint256"
        },
        {
          "indexed": false,
          "name": "author",
          "type": "address"
        },
        {
          "indexed": false,
          "name": "timestamp",
          "type": "uint256"
        },
        {
          "indexed": false,
          "name": "messageType",
          "type": "string"
        },
        {
          "indexed": false,
          "name": "content",
          "type": "string"
        }
      ],
      "name": "NewMessage",
      "type": "event"
    },
    {
      "anonymous": false,
      "inputs": [
        {
          "indexed": false,
          "name": "referenceIdx",
          "type": "uint256"
        },
        {
          "indexed": false,
          "name": "author",
          "type": "address"
        },
        {
          "indexed": false,
          "name": "timestamp",
          "type": "uint256"
        },
        {
          "indexed": false,
          "name": "content",
          "type": "string"
        }
      ],
      "name": "NewComment",
      "type": "event"
    },
    {
      "constant": true,
      "inputs": [
        {
          "name": "user",
          "type": "address"
        }
      ],
      "name": "verifyMembership",
      "outputs": [
        {
          "name": "",
          "type": "bool"
        }
      ],
      "payable": false,
      "stateMutability": "view",
      "type": "function"
    },
    {
      "constant": false,
      "inputs": [
        {
          "name": "user",
          "type": "address"
        },
        {
          "name": "membership",
          "type": "bool"
        }
      ],
      "name": "setMembership",
      "outputs": [],
      "payable": false,
      "stateMutability": "nonpayable",
      "type": "function"
    },
    {
      "constant": false,
      "inputs": [
        {
          "name": "messageType",
          "type": "string"
        },
        {
          "name": "content",
          "type": "string"
        }
      ],
      "name": "addMessage",
      "outputs": [],
      "payable": false,
      "stateMutability": "nonpayable",
      "type": "function"
    },
    {
      "constant": false,
      "inputs": [
        {
          "name": "referenceIdx",
          "type": "uint256"
        },
        {
          "name": "content",
          "type": "string"
        }
      ],
      "name": "addComment",
      "outputs": [],
      "payable": false,
      "stateMutability": "nonpayable",
      "type": "function"
    }
  ],
  "bytecode": "0x608060405234801561001057600080fd5b5033600560006101000a81548173ffffffffffffffffffffffffffffffffffffffff021916908373ffffffffffffffffffffffffffffffffffffffff160217905550600060018190555061123e806100696000396000f3fe6080604052600436106100a4576000357c0100000000000000000000000000000000000000000000000000000000900463ffffffff16806301746484146100a957806308ae4b0c146101065780630d80fefd1461016f5780633dbcc8d1146102d057806345ff20de146102fb578063631e0c69146103265780638576b3f8146104855780638da5cb5b146104ee5780638ebb4c1514610545578063aa7e56831461063a575b600080fd5b3480156100b557600080fd5b50610104600480360360408110156100cc57600080fd5b81019080803573ffffffffffffffffffffffffffffffffffffffff16906020019092919080351515906020019092919050505061070c565b005b34801561011257600080fd5b506101556004803603602081101561012957600080fd5b81019080803573ffffffffffffffffffffffffffffffffffffffff169060200190929190505050610851565b604051808215151515815260200191505060405180910390f35b34801561017b57600080fd5b506101a86004803603602081101561019257600080fd5b8101908080359060200190929190505050610871565b604051808681526020018573ffffffffffffffffffffffffffffffffffffffff1673ffffffffffffffffffffffffffffffffffffffff1681526020018481526020018060200180602001838103835285818151815260200191508051906020019080838360005b8381101561022a57808201518184015260208101905061020f565b50505050905090810190601f1680156102575780820380516001836020036101000a031916815260200191505b50838103825284818151815260200191508051906020019080838360005b83811015610290578082015181840152602081019050610275565b50505050905090810190601f1680156102bd5780820380516001836020036101000a031916815260200191505b5097505050505050505060405180910390f35b3480156102dc57600080fd5b506102e5610a06565b6040518082815260200191505060405180910390f35b34801561030757600080fd5b50610310610a0c565b6040518082815260200191505060405180910390f35b34801561033257600080fd5b506104836004803603604081101561034957600080fd5b810190808035906020019064010000000081111561036657600080fd5b82018360208201111561037857600080fd5b8035906020019184600183028401116401000000008311171561039a57600080fd5b91908080601f016020809104026020016040519081016040528093929190818152602001838380828437600081840152601f19601f820116905080830192505050505050509192919290803590602001906401000000008111156103fd57600080fd5b82018360208201111561040f57600080fd5b8035906020019184600183028401116401000000008311171561043157600080fd5b91908080601f016020809104026020016040519081016040528093929190818152602001838380828437600081840152601f19601f820116905080830192505050505050509192919290505050610a12565b005b34801561049157600080fd5b506104d4600480360360208110156104a857600080fd5b81019080803573ffffffffffffffffffffffffffffffffffffffff169060200190929190505050610d1d565b604051808215151515815260200191505060405180910390f35b3480156104fa57600080fd5b50610503610d72565b604051808273ffffffffffffffffffffffffffffffffffffffff1673ffffffffffffffffffffffffffffffffffffffff16815260200191505060405180910390f35b34801561055157600080fd5b5061057e6004803603602081101561056857600080fd5b8101908080359060200190929190505050610d98565b604051808581526020018473ffffffffffffffffffffffffffffffffffffffff1673ffffffffffffffffffffffffffffffffffffffff16815260200183815260200180602001828103825283818151815260200191508051906020019080838360005b838110156105fc5780820151818401526020810190506105e1565b50505050905090810190601f1680156106295780820380516001836020036101000a031916815260200191505b509550505050505060405180910390f35b34801561064657600080fd5b5061070a6004803603604081101561065d57600080fd5b81019080803590602001909291908035906020019064010000000081111561068457600080fd5b82018360208201111561069657600080fd5b803590602001918460018302840111640100000000831117156106b857600080fd5b91908080601f016020809104026020016040519081016040528093929190818152602001838380828437600081840152601f19601f820116905080830192505050505050509192919290505050610e8f565b005b600560009054906101000a900473ffffffffffffffffffffffffffffffffffffffff1673ffffffffffffffffffffffffffffffffffffffff163373ffffffffffffffffffffffffffffffffffffffff161415156107f7576040517f08c379a000000000000000000000000000000000000000000000000000000000815260040180806020018281038252602a8152602001807f4f6e6c792074686520636f6e7472616374206f776e65722063616e207365742081526020017f6d656d626572736869700000000000000000000000000000000000000000000081525060400191505060405180910390fd5b806000808473ffffffffffffffffffffffffffffffffffffffff1673ffffffffffffffffffffffffffffffffffffffff16815260200190815260200160002060006101000a81548160ff0219169083151502179055505050565b60006020528060005260406000206000915054906101000a900460ff1681565b60038181548110151561088057fe5b90600052602060002090600502016000915090508060000154908060010160009054906101000a900473ffffffffffffffffffffffffffffffffffffffff1690806002015490806003018054600181600116156101000203166002900480601f01602080910402602001604051908101604052809291908181526020018280546001816001161561010002031660029004801561095e5780601f106109335761010080835404028352916020019161095e565b820191906000526020600020905b81548152906001019060200180831161094157829003601f168201915b505050505090806004018054600181600116156101000203166002900480601f0160208091040260200160405190810160405280929190818152602001828054600181600116156101000203166002900480156109fc5780601f106109d1576101008083540402835291602001916109fc565b820191906000526020600020905b8154815290600101906020018083116109df57829003601f168201915b5050505050905085565b60015481565b60025481565b610a1b33610d1d565b1515610a8f576040517f08c379a000000000000000000000000000000000000000000000000000000000815260040180806020018281038252601e8152602001807f4f6e6c79206d656d626572732063616e20706f7374206d65737361676573000081525060200191505060405180910390fd5b600080600380549050141515610aac576003805490509050610ab1565b600090505b610ab96110e8565b60a0604051908101604052808381526020013373ffffffffffffffffffffffffffffffffffffffff168152602001428152602001858152602001848152509050600381908060018154018082558091505090600182039060005260206000209060050201600090919290919091506000820151816000015560208201518160010160006101000a81548173ffffffffffffffffffffffffffffffffffffffff021916908373ffffffffffffffffffffffffffffffffffffffff160217905550604082015181600201556060820151816003019080519060200190610b9e92919061112e565b506080820151816004019080519060200190610bbb92919061112e565b5050505060018054016001819055507f6acd3d226be4b0f025952c383aae1493649f6d6c452fd0e8d6b588c3da1a3daa8233428787604051808681526020018573ffffffffffffffffffffffffffffffffffffffff1673ffffffffffffffffffffffffffffffffffffffff1681526020018481526020018060200180602001838103835285818151815260200191508051906020019080838360005b83811015610c72578082015181840152602081019050610c57565b50505050905090810190601f168015610c9f5780820380516001836020036101000a031916815260200191505b50838103825284818151815260200191508051906020019080838360005b83811015610cd8578082015181840152602081019050610cbd565b50505050905090810190601f168015610d055780820380516001836020036101000a031916815260200191505b5097505050505050505060405180910390a150505050565b60008060008373ffffffffffffffffffffffffffffffffffffffff1673ffffffffffffffffffffffffffffffffffffffff16815260200190815260200160002060009054906101000a900460ff169050919050565b600560009054906101000a900473ffffffffffffffffffffffffffffffffffffffff1681565b600481815481101515610da757fe5b90600052602060002090600402016000915090508060000154908060010160009054906101000a900473ffffffffffffffffffffffffffffffffffffffff1690806002015490806003018054600181600116156101000203166002900480601f016020809104026020016040519081016040528092919081815260200182805460018160011615610100020316600290048015610e855780601f10610e5a57610100808354040283529160200191610e85565b820191906000526020600020905b815481529060010190602001808311610e6857829003601f168201915b5050505050905084565b610e9833610d1d565b1515610f0c576040517f08c379a000000000000000000000000000000000000000000000000000000000815260040180806020018281038252601e8152602001807f4f6e6c79206d656d626572732063616e20706f737420636f6d6d656e7473000081525060200191505060405180910390fd5b610f146111ae565b6080604051908101604052808481526020013373ffffffffffffffffffffffffffffffffffffffff168152602001428152602001838152509050600481908060018154018082558091505090600182039060005260206000209060040201600090919290919091506000820151816000015560208201518160010160006101000a81548173ffffffffffffffffffffffffffffffffffffffff021916908373ffffffffffffffffffffffffffffffffffffffff160217905550604082015181600201556060820151816003019080519060200190610ff392919061112e565b505050506001600254016002819055507f0ce823e6c18fa88fd5fa25948afabd0373b28b41a287100a0291906078f6cee783334285604051808581526020018473ffffffffffffffffffffffffffffffffffffffff1673ffffffffffffffffffffffffffffffffffffffff16815260200183815260200180602001828103825283818151815260200191508051906020019080838360005b838110156110a657808201518184015260208101905061108b565b50505050905090810190601f1680156110d35780820380516001836020036101000a031916815260200191505b509550505050505060405180910390a1505050565b60a06040519081016040528060008152602001600073ffffffffffffffffffffffffffffffffffffffff1681526020016000815260200160608152602001606081525090565b828054600181600116156101000203166002900490600052602060002090601f016020900481019282601f1061116f57805160ff191683800117855561119d565b8280016001018555821561119d579182015b8281111561119c578251825591602001919060010190611181565b5b5090506111aa91906111ed565b5090565b60806040519081016040528060008152602001600073ffffffffffffffffffffffffffffffffffffffff16815260200160008152602001606081525090565b61120f91905b8082111561120b5760008160009055506001016111f3565b5090565b9056fea165627a7a7230582066378ad4dc9449584a61f9ec60cf904bad5091a1a7e6154ddac70cb960bdd6140029",
  "source": "// pragma solidity ^0.5.0;\r\n\r\n// contract UniversityForum {\r\n//     // Struct to represent a message\r\n//     struct Message {\r\n//         uint256 index;\r\n//         address author;\r\n//         uint256 timestamp;\r\n//         string messageType;\r\n//         string content;\r\n//     }\r\n\r\n//     // Struct to represent a comment\r\n//     struct Comment {\r\n//         uint256 referenceIdx;\r\n//         address author;\r\n//         uint256 timestamp;\r\n//         string content;\r\n//     }\r\n\r\n//     // Mapping from user address to their membership status\r\n//     mapping(address => bool) public members;\r\n\r\n//     uint256 public messageCount;\r\n//     uint256 public commentCount;\r\n\r\n//     // Array to hold all messages\r\n//     Message[] public messages;\r\n\r\n//     // Array to hold all comments\r\n//     Message[] public comments;\r\n\r\n//     // Event to emit when membership is verified\r\n//     event MembershipVerified(bool membership);\r\n\r\n//     // Event to emit when a new message is added\r\n//     event NewMessage(\r\n//         uint256 index,\r\n//         address author,\r\n//         uint256 timestamp,\r\n//         string messageType,\r\n//         string content\r\n//     );\r\n\r\n//     // Event to emit when a new message is added\r\n//     event NewComment(\r\n//         uint256 referenceIdx,\r\n//         address author,\r\n//         uint256 timestamp,\r\n//         string content\r\n//     );\r\n\r\n//     // Address of the contract owner\r\n//     address public owner;\r\n\r\n//     // Constructor to set the contract owner\r\n//     constructor() public {\r\n//         owner = msg.sender;\r\n//         messageCount = 0;\r\n//     }\r\n\r\n//     function verifyMembership(address user) public view returns (bool) {\r\n//         // Return membership status\r\n//         return members[user];\r\n//     }\r\n\r\n//     // Function to set the membership status of a given user\r\n//     function setMembership(address user, bool membership) public {\r\n//         // Only the contract owner can set membership status\r\n//         require(\r\n//             msg.sender == owner,\r\n//             \"Only the contract owner can set membership\"\r\n//         );\r\n\r\n//         // Set the membership status\r\n//         members[user] = membership;\r\n//     }\r\n\r\n//     // Function to add a new message\r\n//     function addMessage(string memory messageType, string memory content)\r\n//         public\r\n//     {\r\n//         require(verifyMembership(msg.sender), \"Only members can post messages\");\r\n//         uint256 index;\r\n//         if (messages.length != 0) {\r\n//             index = messages.length;\r\n//         }\r\n//         else {\r\n//             index = 0;\r\n//         }\r\n//         // Create a new message and add it to the array\r\n//         Message memory newMessage = Message(\r\n//             index,\r\n//             msg.sender,\r\n//             now,\r\n//             messageType,\r\n//             content\r\n//         );\r\n//         messages.push(newMessage);\r\n//         messageCount = messageCount + 1;\r\n        \r\n//         // Emit event with message details\r\n//         emit NewMessage(index, msg.sender, now, messageType, content);\r\n//     }\r\n\r\n//     // Function to add a new comment\r\n//     function addComment(uint256 referenceIdx, string memory content)\r\n//         public\r\n//     {\r\n//         require(verifyMembership(msg.sender), \"Only members can post comments\");\r\n\r\n//         // Create a new comment and add it to the array\r\n//         Comment memory newComment = Comment(\r\n//             referenceIdx,\r\n//             msg.sender,\r\n//             now,\r\n//             content\r\n//         );\r\n//         comments.push(newComment);\r\n//         commentCount = commentCount + 1;\r\n        \r\n//         // Emit event with comment details\r\n//         emit NewComment(referenceIdx, msg.sender, now, content);\r\n//     }\r\n// }\r\n\r\n\r\npragma solidity 0.5.0;\r\n\r\ncontract UniversityForum {\r\n    // Struct to represent a message\r\n    struct Message {\r\n        uint256 index;\r\n        address author;\r\n        uint256 timestamp;\r\n        string messageType;\r\n        string content;\r\n    }\r\n\r\n    // Struct to represent a comment\r\n    struct Comment {\r\n        uint256 referenceIdx;\r\n        address author;\r\n        uint256 timestamp;\r\n        string content;\r\n    }\r\n\r\n    // Mapping from user address to their membership status\r\n    mapping(address => bool) public members;\r\n\r\n    uint256 public messageCount;\r\n    uint256 public commentCount;\r\n\r\n    // Array to hold all messages\r\n    Message[] public messages;\r\n\r\n    // Array to hold all comments\r\n    Comment[] public comments;\r\n\r\n    // Event to emit when membership is verified\r\n    event MembershipVerified(bool membership);\r\n\r\n    // Event to emit when a new message is added\r\n    event NewMessage(\r\n        uint256 index,\r\n        address author,\r\n        uint256 timestamp,\r\n        string messageType,\r\n        string content\r\n    );\r\n\r\n    // Event to emit when a new message is added\r\n    event NewComment(\r\n        uint256 referenceIdx,\r\n        address author,\r\n        uint256 timestamp,\r\n        string content\r\n    );\r\n\r\n    // Address of the contract owner\r\n    address public owner;\r\n\r\n    // Constructor to set the contract owner\r\n    constructor() public {\r\n        owner = msg.sender;\r\n        messageCount = 0;\r\n    }\r\n\r\n    function verifyMembership(address user) public view returns (bool) {\r\n        // Return membership status\r\n        return members[user];\r\n    }\r\n\r\n    // Function to set the membership status of a given user\r\n    function setMembership(address user, bool membership) public {\r\n        // Only the contract owner can set membership status\r\n        require(\r\n            msg.sender == owner,\r\n            \"Only the contract owner can set membership\"\r\n        );\r\n\r\n        // Set the membership status\r\n        members[user] = membership;\r\n    }\r\n\r\n    // Function to add a new message\r\n    function addMessage(string memory messageType, string memory content)\r\n        public\r\n    {\r\n        require(verifyMembership(msg.sender), \"Only members can post messages\");\r\n        uint256 index;\r\n        if (messages.length != 0) {\r\n            index = messages.length;\r\n        }\r\n        else {\r\n            index = 0;\r\n        }\r\n        // Create a new message and add it to the array\r\n        Message memory newMessage = Message(\r\n            index,\r\n            msg.sender,\r\n            block.timestamp,\r\n            messageType,\r\n            content\r\n        );\r\n        messages.push(newMessage);\r\n        messageCount = messageCount + 1;\r\n        \r\n        // Emit event with message details\r\n        emit NewMessage(index, msg.sender, block.timestamp, messageType, content);\r\n    }\r\n\r\n    // Function to add a new comment\r\n    function addComment(uint256 referenceIdx, string memory content)\r\n        public\r\n    {\r\n        require(verifyMembership(msg.sender), \"Only members can post comments\");\r\n\r\n        // Create a new comment and add it to the array\r\n        Comment memory newComment = Comment(\r\n            referenceIdx,\r\n            msg.sender,\r\n            block.timestamp,\r\n            content\r\n        );\r\n        comments.push(newComment);\r\n        commentCount = commentCount + 1;\r\n        \r\n        // Emit event with comment details\r\n        emit NewComment(referenceIdx, msg.sender, block.timestamp, content);\r\n    }\r\n}\r\n",
  "sourcePath": "C:\\Users\\tance\\Desktop\\Repos\\SU-Forum\\src\\contracts\\UniversityForum.sol",
  "compiler": {
    "name": "solc",
    "version": "0.5.0+commit.1d4f565a.Emscripten.clang"
  },
  "schemaVersion": "3.4.11",
  "updatedAt": "2023-01-18T00:15:45.845Z",
  "devdoc": {
    "methods": {}
  },
  "userdoc": {
    "methods": {}
  }
}