{
  "contractName": "UniversityForum",
  "abi": [
    {
      "constant": true,
      "inputs": [
        {
          "name": "",
          "type": "address"
        }
      ],
      "name": "members",
      "outputs": [
        {
          "name": "",
          "type": "bool"
        }
      ],
      "payable": false,
      "stateMutability": "view",
      "type": "function",
      "signature": "0x08ae4b0c"
    },
    {
      "constant": true,
      "inputs": [
        {
          "name": "",
          "type": "uint256"
        }
      ],
      "name": "messages",
      "outputs": [
        {
          "name": "author",
          "type": "address"
        },
        {
          "name": "timestamp",
          "type": "uint256"
        },
        {
          "name": "messageType",
          "type": "string"
        },
        {
          "name": "content",
          "type": "string"
        }
      ],
      "payable": false,
      "stateMutability": "view",
      "type": "function",
      "signature": "0x0d80fefd"
    },
    {
      "constant": true,
      "inputs": [],
      "name": "messageCount",
      "outputs": [
        {
          "name": "",
          "type": "uint8"
        }
      ],
      "payable": false,
      "stateMutability": "view",
      "type": "function",
      "signature": "0x3dbcc8d1"
    },
    {
      "constant": true,
      "inputs": [],
      "name": "owner",
      "outputs": [
        {
          "name": "",
          "type": "address"
        }
      ],
      "payable": false,
      "stateMutability": "view",
      "type": "function",
      "signature": "0x8da5cb5b"
    },
    {
      "inputs": [],
      "payable": false,
      "stateMutability": "nonpayable",
      "type": "constructor",
      "signature": "constructor"
    },
    {
      "anonymous": false,
      "inputs": [
        {
          "indexed": false,
          "name": "membership",
          "type": "bool"
        }
      ],
      "name": "MembershipVerified",
      "type": "event",
      "signature": "0xe3c45c9f8c9366be5d46160bf19e4bfcb5fbf4bc2748e23bb8f732f8cae3c4c0"
    },
    {
      "anonymous": false,
      "inputs": [
        {
          "indexed": false,
          "name": "index",
          "type": "uint256"
        },
        {
          "indexed": false,
          "name": "author",
          "type": "address"
        },
        {
          "indexed": false,
          "name": "timestamp",
          "type": "uint256"
        },
        {
          "indexed": false,
          "name": "messageType",
          "type": "string"
        },
        {
          "indexed": false,
          "name": "content",
          "type": "string"
        }
      ],
      "name": "NewMessage",
      "type": "event",
      "signature": "0x6acd3d226be4b0f025952c383aae1493649f6d6c452fd0e8d6b588c3da1a3daa"
    },
    {
      "constant": true,
      "inputs": [
        {
          "name": "user",
          "type": "address"
        }
      ],
      "name": "verifyMembership",
      "outputs": [
        {
          "name": "",
          "type": "bool"
        }
      ],
      "payable": false,
      "stateMutability": "view",
      "type": "function",
      "signature": "0x8576b3f8"
    },
    {
      "constant": false,
      "inputs": [
        {
          "name": "user",
          "type": "address"
        },
        {
          "name": "membership",
          "type": "bool"
        }
      ],
      "name": "setMembership",
      "outputs": [],
      "payable": false,
      "stateMutability": "nonpayable",
      "type": "function",
      "signature": "0x01746484"
    },
    {
      "constant": false,
      "inputs": [
        {
          "name": "messageType",
          "type": "string"
        },
        {
          "name": "content",
          "type": "string"
        }
      ],
      "name": "addMessage",
      "outputs": [],
      "payable": false,
      "stateMutability": "nonpayable",
      "type": "function",
      "signature": "0x631e0c69"
    }
  ],
  "bytecode": "0x608060405234801561001057600080fd5b5033600360006101000a81548173ffffffffffffffffffffffffffffffffffffffff021916908373ffffffffffffffffffffffffffffffffffffffff1602179055506000600160006101000a81548160ff021916908360ff160217905550600160008073bdb85d44d34777aad8503d9ea604c3fe7986754073ffffffffffffffffffffffffffffffffffffffff1673ffffffffffffffffffffffffffffffffffffffff16815260200190815260200160002060006101000a81548160ff021916908315150217905550610c91806100e86000396000f3fe608060405260043610610083576000357c0100000000000000000000000000000000000000000000000000000000900463ffffffff168063017464841461008857806308ae4b0c146100e55780630d80fefd1461014e5780633dbcc8d1146102a8578063631e0c69146102d95780638576b3f8146104385780638da5cb5b146104a1575b600080fd5b34801561009457600080fd5b506100e3600480360360408110156100ab57600080fd5b81019080803573ffffffffffffffffffffffffffffffffffffffff1690602001909291908035151590602001909291905050506104f8565b005b3480156100f157600080fd5b506101346004803603602081101561010857600080fd5b81019080803573ffffffffffffffffffffffffffffffffffffffff16906020019092919050505061063d565b604051808215151515815260200191505060405180910390f35b34801561015a57600080fd5b506101876004803603602081101561017157600080fd5b810190808035906020019092919050505061065d565b604051808573ffffffffffffffffffffffffffffffffffffffff1673ffffffffffffffffffffffffffffffffffffffff1681526020018481526020018060200180602001838103835285818151815260200191508051906020019080838360005b838110156102035780820151818401526020810190506101e8565b50505050905090810190601f1680156102305780820380516001836020036101000a031916815260200191505b50838103825284818151815260200191508051906020019080838360005b8381101561026957808201518184015260208101905061024e565b50505050905090810190601f1680156102965780820380516001836020036101000a031916815260200191505b50965050505050505060405180910390f35b3480156102b457600080fd5b506102bd6107ec565b604051808260ff1660ff16815260200191505060405180910390f35b3480156102e557600080fd5b50610436600480360360408110156102fc57600080fd5b810190808035906020019064010000000081111561031957600080fd5b82018360208201111561032b57600080fd5b8035906020019184600183028401116401000000008311171561034d57600080fd5b91908080601f016020809104026020016040519081016040528093929190818152602001838380828437600081840152601f19601f820116905080830192505050505050509192919290803590602001906401000000008111156103b057600080fd5b8201836020820111156103c257600080fd5b803590602001918460018302840111640100000000831117156103e457600080fd5b91908080601f016020809104026020016040519081016040528093929190818152602001838380828437600081840152601f19601f8201169050808301925050505050505091929192905050506107ff565b005b34801561044457600080fd5b506104876004803603602081101561045b57600080fd5b81019080803573ffffffffffffffffffffffffffffffffffffffff169060200190929190505050610b06565b604051808215151515815260200191505060405180910390f35b3480156104ad57600080fd5b506104b6610b5b565b604051808273ffffffffffffffffffffffffffffffffffffffff1673ffffffffffffffffffffffffffffffffffffffff16815260200191505060405180910390f35b600360009054906101000a900473ffffffffffffffffffffffffffffffffffffffff1673ffffffffffffffffffffffffffffffffffffffff163373ffffffffffffffffffffffffffffffffffffffff161415156105e3576040517f08c379a000000000000000000000000000000000000000000000000000000000815260040180806020018281038252602a8152602001807f4f6e6c792074686520636f6e7472616374206f776e65722063616e207365742081526020017f6d656d626572736869700000000000000000000000000000000000000000000081525060400191505060405180910390fd5b806000808473ffffffffffffffffffffffffffffffffffffffff1673ffffffffffffffffffffffffffffffffffffffff16815260200190815260200160002060006101000a81548160ff0219169083151502179055505050565b60006020528060005260406000206000915054906101000a900460ff1681565b60028181548110151561066c57fe5b90600052602060002090600402016000915090508060000160009054906101000a900473ffffffffffffffffffffffffffffffffffffffff1690806001015490806002018054600181600116156101000203166002900480601f0160208091040260200160405190810160405280929190818152602001828054600181600116156101000203166002900480156107445780601f1061071957610100808354040283529160200191610744565b820191906000526020600020905b81548152906001019060200180831161072757829003601f168201915b505050505090806003018054600181600116156101000203166002900480601f0160208091040260200160405190810160405280929190818152602001828054600181600116156101000203166002900480156107e25780601f106107b7576101008083540402835291602001916107e2565b820191906000526020600020905b8154815290600101906020018083116107c557829003601f168201915b5050505050905084565b600160009054906101000a900460ff1681565b61080833610b06565b151561087c576040517f08c379a000000000000000000000000000000000000000000000000000000000815260040180806020018281038252601e8152602001807f4f6e6c79206d656d626572732063616e20706f7374206d65737361676573000081525060200191505060405180910390fd5b610884610b81565b6080604051908101604052803373ffffffffffffffffffffffffffffffffffffffff1681526020014281526020018481526020018381525090506002819080600181540180825580915050906001820390600052602060002090600402016000909192909190915060008201518160000160006101000a81548173ffffffffffffffffffffffffffffffffffffffff021916908373ffffffffffffffffffffffffffffffffffffffff160217905550602082015181600101556040820151816002019080519060200190610959929190610bc0565b506060820151816003019080519060200190610976929190610bc0565b505050506000600160028054905003905060018060009054906101000a900460ff1601600160006101000a81548160ff021916908360ff1602179055507f6acd3d226be4b0f025952c383aae1493649f6d6c452fd0e8d6b588c3da1a3daa8133428787604051808681526020018573ffffffffffffffffffffffffffffffffffffffff1673ffffffffffffffffffffffffffffffffffffffff1681526020018481526020018060200180602001838103835285818151815260200191508051906020019080838360005b83811015610a5b578082015181840152602081019050610a40565b50505050905090810190601f168015610a885780820380516001836020036101000a031916815260200191505b50838103825284818151815260200191508051906020019080838360005b83811015610ac1578082015181840152602081019050610aa6565b50505050905090810190601f168015610aee5780820380516001836020036101000a031916815260200191505b5097505050505050505060405180910390a150505050565b60008060008373ffffffffffffffffffffffffffffffffffffffff1673ffffffffffffffffffffffffffffffffffffffff16815260200190815260200160002060009054906101000a900460ff169050919050565b600360009054906101000a900473ffffffffffffffffffffffffffffffffffffffff1681565b608060405190810160405280600073ffffffffffffffffffffffffffffffffffffffff1681526020016000815260200160608152602001606081525090565b828054600181600116156101000203166002900490600052602060002090601f016020900481019282601f10610c0157805160ff1916838001178555610c2f565b82800160010185558215610c2f579182015b82811115610c2e578251825591602001919060010190610c13565b5b509050610c3c9190610c40565b5090565b610c6291905b80821115610c5e576000816000905550600101610c46565b5090565b9056fea165627a7a723058201e945cb9f119f3e8bff81faf2c3880634b5d0be8e12b166a75f1126d62971b840029",
  "source": "pragma solidity ^0.5.0;\r\n\r\ncontract UniversityForum {\r\n    // Struct to represent a message\r\n    struct Message {\r\n        address author;\r\n        uint timestamp;\r\n        string messageType;\r\n        string content;\r\n    }\r\n\r\n    // Mapping from user address to their membership status\r\n    mapping(address => bool) public members;\r\n\r\n    // Message count\r\n    uint8 public messageCount;\r\n\r\n    // Array to hold all messages\r\n    Message[] public messages;\r\n\r\n    // Event to emit when membership is verified\r\n    event MembershipVerified(bool membership);\r\n\r\n    // Event to emit when a new message is added\r\n    event NewMessage(uint index, address author, uint timestamp, string messageType, string content);\r\n\r\n    // Address of the contract owner\r\n    address public owner;\r\n\r\n    // Constructor to set the contract owner\r\n    constructor() public {\r\n        owner = msg.sender;\r\n        messageCount = 0;\r\n        members[0xBdB85D44D34777aad8503D9eA604C3FE79867540] = true;\r\n    }\r\n\r\n    function verifyMembership(address user) public view returns (bool) {\r\n        // Return membership status\r\n        return members[user];\r\n    }\r\n\r\n    // Function to set the membership status of a given user\r\n    function setMembership(address user, bool membership) public {\r\n        // Only the contract owner can set membership status\r\n        require(msg.sender == owner, \"Only the contract owner can set membership\");\r\n\r\n        // Set the membership status\r\n        members[user] = membership;\r\n    }\r\n\r\n    // Function to add a new message\r\n    function addMessage(string memory messageType, string memory content) public {\r\n        require(verifyMembership(msg.sender), \"Only members can post messages\");\r\n\r\n        // Create a new message and add it to the array\r\n        Message memory newMessage = Message(msg.sender, now, messageType, content);\r\n        messages.push(newMessage);\r\n\r\n        // Emit event with message details\r\n        uint index = messages.length - 1;\r\n        messageCount = messageCount + 1;\r\n        emit NewMessage(index, msg.sender, now, messageType, content);\r\n    }\r\n}\r\n",
  "sourcePath": "C:/Users/tance/Desktop/SU-Forum/src/contracts/UniversityForum.sol",
  "compiler": {
    "name": "solc",
    "version": "0.5.0+commit.1d4f565a.Emscripten.clang"
  },
  "schemaVersion": "3.0.2",
  "updatedAt": "2022-12-23T12:23:27.936Z",
  "devdoc": {
    "methods": {}
  },
  "userdoc": {
    "methods": {}
  }
}