{
    "contractName": "Migrations",
    "abi": [
        {
            "inputs": [],
            "stateMutability": "nonpayable",
            "type": "constructor"
        },
        {
            "inputs": [],
            "name": "last_completed_migration",
            "outputs": [
                {
                    "internalType": "uint256",
                    "name": "",
                    "type": "uint256"
                }
            ],
            "stateMutability": "view",
            "type": "function"
        },
        {
            "inputs": [],
            "name": "owner",
            "outputs": [
                {
                    "internalType": "address",
                    "name": "",
                    "type": "address"
                }
            ],
            "stateMutability": "view",
            "type": "function"
        },
        {
            "inputs": [
                {
                    "internalType": "uint256",
                    "name": "completed",
                    "type": "uint256"
                }
            ],
            "name": "setCompleted",
            "outputs": [],
            "stateMutability": "nonpayable",
            "type": "function"
        },
        {
            "inputs": [
                {
                    "internalType": "address",
                    "name": "new_address",
                    "type": "address"
                }
            ],
            "name": "upgrade",
            "outputs": [],
            "stateMutability": "nonpayable",
            "type": "function"
        }
    ],
    "bytecode": "608060405234801561001057600080fd5b50600080546001600160a01b031916331790556101eb806100326000396000f3fe608060405234801561001057600080fd5b506004361061004c5760003560e01c80630900f01014610051578063445df0ac146100665780638da5cb5b14610084578063fdacd57614610099575b600080fd5b61006461005f366004610152565b6100ac565b005b61006e610125565b60405161007b91906101ac565b60405180910390f35b61008c61012b565b60405161007b9190610198565b6100646100a7366004610180565b61013a565b6000546001600160a01b031633141561012257600154604051637ed66abb60e11b815282916001600160a01b0383169163fdacd576916100ee916004016101ac565b600060405180830381600087803b15801561010857600080fd5b505af115801561011c573d6000803e3d6000fd5b50505050505b50565b60015481565b6000546001600160a01b031681565b6000546001600160a01b031633141561012257600155565b600060208284031215610163578081fd5b81356001600160a01b0381168114610179578182fd5b9392505050565b600060208284031215610191578081fd5b5035919050565b6001600160a01b0391909116815260200190565b9081526020019056fea26469706673582212208140c3f5498f17c6d838396a61d4f2944d264ccb8010ae60d72868ab0dc3497a64736f6c63430008000033",
    "sourcePath": "c:/Users/tance/Desktop/Repos/SU-Forum/src/contracts/Migrations.sol",
    "compiler": {
        "name": "solc",
        "version": "0.8.0+commit.c7dfd78e"
    },
    "functionHashes": {
        "last_completed_migration()": "445df0ac",
        "owner()": "8da5cb5b",
        "setCompleted(uint256)": "fdacd576",
        "upgrade(address)": "0900f010"
    },
    "gasEstimates": {
        "creation": {
            "codeDepositCost": "98200",
            "executionCost": "20982",
            "totalCost": "119182"
        },
        "external": {
            "last_completed_migration()": "1028",
            "owner()": "1092",
            "setCompleted(uint256)": "21110",
            "upgrade(address)": "infinite"
        }
    }
}