{
    "contractName": "UniversityForum",
    "abi": [
        {
            "inputs": [],
            "stateMutability": "nonpayable",
            "type": "constructor"
        },
        {
            "anonymous": false,
            "inputs": [
                {
                    "indexed": false,
                    "internalType": "bool",
                    "name": "membership",
                    "type": "bool"
                }
            ],
            "name": "MembershipVerified",
            "type": "event"
        },
        {
            "anonymous": false,
            "inputs": [
                {
                    "indexed": false,
                    "internalType": "uint256",
                    "name": "referenceIdx",
                    "type": "uint256"
                },
                {
                    "indexed": false,
                    "internalType": "address",
                    "name": "author",
                    "type": "address"
                },
                {
                    "indexed": false,
                    "internalType": "uint256",
                    "name": "timestamp",
                    "type": "uint256"
                },
                {
                    "indexed": false,
                    "internalType": "string",
                    "name": "content",
                    "type": "string"
                }
            ],
            "name": "NewComment",
            "type": "event"
        },
        {
            "anonymous": false,
            "inputs": [
                {
                    "indexed": false,
                    "internalType": "uint256",
                    "name": "index",
                    "type": "uint256"
                },
                {
                    "indexed": false,
                    "internalType": "address",
                    "name": "author",
                    "type": "address"
                },
                {
                    "indexed": false,
                    "internalType": "uint256",
                    "name": "timestamp",
                    "type": "uint256"
                },
                {
                    "indexed": false,
                    "internalType": "string",
                    "name": "messageType",
                    "type": "string"
                },
                {
                    "indexed": false,
                    "internalType": "string",
                    "name": "content",
                    "type": "string"
                }
            ],
            "name": "NewMessage",
            "type": "event"
        },
        {
            "inputs": [
                {
                    "internalType": "uint256",
                    "name": "referenceIdx",
                    "type": "uint256"
                },
                {
                    "internalType": "string",
                    "name": "content",
                    "type": "string"
                }
            ],
            "name": "addComment",
            "outputs": [],
            "stateMutability": "nonpayable",
            "type": "function"
        },
        {
            "inputs": [
                {
                    "internalType": "string",
                    "name": "messageType",
                    "type": "string"
                },
                {
                    "internalType": "string",
                    "name": "content",
                    "type": "string"
                }
            ],
            "name": "addMessage",
            "outputs": [],
            "stateMutability": "nonpayable",
            "type": "function"
        },
        {
            "inputs": [],
            "name": "commentCount",
            "outputs": [
                {
                    "internalType": "uint256",
                    "name": "",
                    "type": "uint256"
                }
            ],
            "stateMutability": "view",
            "type": "function"
        },
        {
            "inputs": [
                {
                    "internalType": "uint256",
                    "name": "",
                    "type": "uint256"
                }
            ],
            "name": "comments",
            "outputs": [
                {
                    "internalType": "uint256",
                    "name": "referenceIdx",
                    "type": "uint256"
                },
                {
                    "internalType": "address",
                    "name": "author",
                    "type": "address"
                },
                {
                    "internalType": "uint256",
                    "name": "timestamp",
                    "type": "uint256"
                },
                {
                    "internalType": "string",
                    "name": "content",
                    "type": "string"
                }
            ],
            "stateMutability": "view",
            "type": "function"
        },
        {
            "inputs": [
                {
                    "internalType": "address",
                    "name": "",
                    "type": "address"
                }
            ],
            "name": "members",
            "outputs": [
                {
                    "internalType": "bool",
                    "name": "",
                    "type": "bool"
                }
            ],
            "stateMutability": "view",
            "type": "function"
        },
        {
            "inputs": [],
            "name": "messageCount",
            "outputs": [
                {
                    "internalType": "uint256",
                    "name": "",
                    "type": "uint256"
                }
            ],
            "stateMutability": "view",
            "type": "function"
        },
        {
            "inputs": [
                {
                    "internalType": "uint256",
                    "name": "",
                    "type": "uint256"
                }
            ],
            "name": "messages",
            "outputs": [
                {
                    "internalType": "uint256",
                    "name": "index",
                    "type": "uint256"
                },
                {
                    "internalType": "address",
                    "name": "author",
                    "type": "address"
                },
                {
                    "internalType": "uint256",
                    "name": "timestamp",
                    "type": "uint256"
                },
                {
                    "internalType": "string",
                    "name": "messageType",
                    "type": "string"
                },
                {
                    "internalType": "string",
                    "name": "content",
                    "type": "string"
                }
            ],
            "stateMutability": "view",
            "type": "function"
        },
        {
            "inputs": [],
            "name": "owner",
            "outputs": [
                {
                    "internalType": "address",
                    "name": "",
                    "type": "address"
                }
            ],
            "stateMutability": "view",
            "type": "function"
        },
        {
            "inputs": [
                {
                    "internalType": "address",
                    "name": "user",
                    "type": "address"
                },
                {
                    "internalType": "bool",
                    "name": "membership",
                    "type": "bool"
                }
            ],
            "name": "setMembership",
            "outputs": [],
            "stateMutability": "nonpayable",
            "type": "function"
        },
        {
            "inputs": [
                {
                    "internalType": "address",
                    "name": "user",
                    "type": "address"
                }
            ],
            "name": "verifyMembership",
            "outputs": [
                {
                    "internalType": "bool",
                    "name": "",
                    "type": "bool"
                }
            ],
            "stateMutability": "view",
            "type": "function"
        }
    ],
    "bytecode": "608060405234801561001057600080fd5b50600580546001600160a01b031916331790556000600155610c48806100376000396000f3fe608060405234801561001057600080fd5b506004361061009e5760003560e01c8063631e0c6911610066578063631e0c69146101225780638576b3f8146101355780638da5cb5b146101485780638ebb4c151461015d578063aa7e5683146101805761009e565b806301746484146100a357806308ae4b0c146100b85780630d80fefd146100e15780633dbcc8d11461010557806345ff20de1461011a575b600080fd5b6100b66100b1366004610902565b610193565b005b6100cb6100c63660046108e1565b6101f1565b6040516100d89190610a4f565b60405180910390f35b6100f46100ef36600461099d565b610206565b6040516100d8959493929190610b52565b61010d610366565b6040516100d89190610b12565b61010d61036c565b6100b661013036600461093c565b610372565b6100cb6101433660046108e1565b610530565b610150610552565b6040516100d89190610a3b565b61017061016b36600461099d565b610561565b6040516100d89493929190610b1b565b6100b661018e3660046109b5565b610633565b6005546001600160a01b031633146101c65760405162461bcd60e51b81526004016101bd90610a5a565b60405180910390fd5b6001600160a01b03919091166000908152602081905260409020805460ff1916911515919091179055565b60006020819052908152604090205460ff1681565b6003818154811061021657600080fd5b600091825260209091206005909102018054600182015460028301546003840180549395506001600160a01b0390921693909290919061025590610bc1565b80601f016020809104026020016040519081016040528092919081815260200182805461028190610bc1565b80156102ce5780601f106102a3576101008083540402835291602001916102ce565b820191906000526020600020905b8154815290600101906020018083116102b157829003601f168201915b5050505050908060040180546102e390610bc1565b80601f016020809104026020016040519081016040528092919081815260200182805461030f90610bc1565b801561035c5780601f106103315761010080835404028352916020019161035c565b820191906000526020600020905b81548152906001019060200180831161033f57829003601f168201915b5050505050905085565b60015481565b60025481565b61037b33610530565b6103975760405162461bcd60e51b81526004016101bd90610adb565b600354600090156103ab57506003546103af565b5060005b6040805160a0810182528281523360208083019182524293830193845260608301878152608084018790526003805460018101825560009190915284517fc2575a0e9e593c00f959f8c92f12db2869c3395a3b0502d05e2516446f71f85b600590920291820190815593517fc2575a0e9e593c00f959f8c92f12db2869c3395a3b0502d05e2516446f71f85c820180546001600160a01b0319166001600160a01b0390921691909117905594517fc2575a0e9e593c00f959f8c92f12db2869c3395a3b0502d05e2516446f71f85d860155518051939485946104b9937fc2575a0e9e593c00f959f8c92f12db2869c3395a3b0502d05e2516446f71f85e90920192909101906107b0565b50608082015180516104d59160048401916020909101906107b0565b50505060015460016104e79190610b9d565b6001556040517f6acd3d226be4b0f025952c383aae1493649f6d6c452fd0e8d6b588c3da1a3daa906105229084903390429089908990610b52565b60405180910390a150505050565b6001600160a01b03811660009081526020819052604090205460ff165b919050565b6005546001600160a01b031681565b6004818154811061057157600080fd5b600091825260209091206004909102018054600182015460028301546003840180549395506001600160a01b039092169390929091906105b090610bc1565b80601f01602080910402602001604051908101604052809291908181526020018280546105dc90610bc1565b80156106295780601f106105fe57610100808354040283529160200191610629565b820191906000526020600020905b81548152906001019060200180831161060c57829003601f168201915b5050505050905084565b61063c33610530565b6106585760405162461bcd60e51b81526004016101bd90610aa4565b604080516080810182528381523360208083019182524293830193845260608301858152600480546001810182556000829052855191027f8a35acfbc15ff81a39ae7d344fd709f28e8600b4aa8c65c6b64bfe7fe36bd19b810191825593517f8a35acfbc15ff81a39ae7d344fd709f28e8600b4aa8c65c6b64bfe7fe36bd19c850180546001600160a01b03929092166001600160a01b031990921691909117905594517f8a35acfbc15ff81a39ae7d344fd709f28e8600b4aa8c65c6b64bfe7fe36bd19d840155518051939485949093610759937f8a35acfbc15ff81a39ae7d344fd709f28e8600b4aa8c65c6b64bfe7fe36bd19e9091019201906107b0565b505060025461076a91506001610b9d565b6002556040517f0ce823e6c18fa88fd5fa25948afabd0373b28b41a287100a0291906078f6cee7906107a3908590339042908790610b1b565b60405180910390a1505050565b8280546107bc90610bc1565b90600052602060002090601f0160209004810192826107de5760008555610824565b82601f106107f757805160ff1916838001178555610824565b82800160010185558215610824579182015b82811115610824578251825591602001919060010190610809565b50610830929150610834565b5090565b5b808211156108305760008155600101610835565b80356001600160a01b038116811461054d57600080fd5b600082601f830112610870578081fd5b813567ffffffffffffffff8082111561088b5761088b610bfc565b604051601f8301601f1916810160200182811182821017156108af576108af610bfc565b6040528281528483016020018610156108c6578384fd5b82602086016020830137918201602001929092529392505050565b6000602082840312156108f2578081fd5b6108fb82610849565b9392505050565b60008060408385031215610914578081fd5b61091d83610849565b915060208301358015158114610931578182fd5b809150509250929050565b6000806040838503121561094e578182fd5b823567ffffffffffffffff80821115610965578384fd5b61097186838701610860565b93506020850135915080821115610986578283fd5b5061099385828601610860565b9150509250929050565b6000602082840312156109ae578081fd5b5035919050565b600080604083850312156109c7578182fd5b82359150602083013567ffffffffffffffff8111156109e4578182fd5b61099385828601610860565b60008151808452815b81811015610a15576020818501810151868301820152016109f9565b81811115610a265782602083870101525b50601f01601f19169290920160200192915050565b6001600160a01b0391909116815260200190565b901515815260200190565b6020808252602a908201527f4f6e6c792074686520636f6e7472616374206f776e65722063616e207365742060408201526906d656d626572736869760b41b606082015260800190565b6020808252601e908201527f4f6e6c79206d656d626572732063616e20706f737420636f6d6d656e74730000604082015260600190565b6020808252601e908201527f4f6e6c79206d656d626572732063616e20706f7374206d657373616765730000604082015260600190565b90815260200190565b600085825260018060a01b038516602083015283604083015260806060830152610b4860808301846109f0565b9695505050505050565b600086825260018060a01b038616602083015284604083015260a06060830152610b7f60a08301856109f0565b8281036080840152610b9181856109f0565b98975050505050505050565b60008219821115610bbc57634e487b7160e01b81526011600452602481fd5b500190565b600281046001821680610bd557607f821691505b60208210811415610bf657634e487b7160e01b600052602260045260246000fd5b50919050565b634e487b7160e01b600052604160045260246000fdfea26469706673582212201829341fa4bdfdf5c2de4cb44bc769dc0913424765a976e3685185045b0f640c64736f6c63430008000033",
    "sourcePath": "c:/Users/tance/Desktop/Repos/SU-Forum/src/contracts/UniversityForum.sol",
    "compiler": {
        "name": "solc",
        "version": "0.8.0+commit.c7dfd78e"
    },
    "functionHashes": {
        "addComment(uint256,string)": "aa7e5683",
        "addMessage(string,string)": "631e0c69",
        "commentCount()": "45ff20de",
        "comments(uint256)": "8ebb4c15",
        "members(address)": "08ae4b0c",
        "messageCount()": "3dbcc8d1",
        "messages(uint256)": "0d80fefd",
        "owner()": "8da5cb5b",
        "setMembership(address,bool)": "01746484",
        "verifyMembership(address)": "8576b3f8"
    },
    "gasEstimates": {
        "creation": {
            "codeDepositCost": "628800",
            "executionCost": "26505",
            "totalCost": "655305"
        },
        "external": {
            "addComment(uint256,string)": "infinite",
            "addMessage(string,string)": "infinite",
            "commentCount()": "1117",
            "comments(uint256)": "infinite",
            "members(address)": "1290",
            "messageCount()": "1095",
            "messages(uint256)": "infinite",
            "owner()": "1114",
            "setMembership(address,bool)": "22138",
            "verifyMembership(address)": "infinite"
        }
    }
}